100862090042          MM                  202304302023-04-19-00.38.20.032023-04-162023-04-300000010000PY                                                                            
2090042          MM                  04076337685724          20230430AAAP000000006000000000000000000BLESSING, JOHN D              00000000               N                          
3000000214000000642                                                                                                                                                                 
00000000000HDR041923VGI LOANS    1                                                                                                                                                  
090042          05074881901200000013146000006310080080000230405000480000001314621540        5DOCONNEL, ABCDEF              Y0000058220000000048808                         N      1 
090042          15666983900900000013804000000000000040000220408001200000001380417080        5DOCONNEL, BOBBY A              Y0000150000000000156480                         D     1 
090042XXAC      60625368300400000014002000000000000067500221228000480000001400233783        5DOCONNEL, FELIPE              Y0000062780000000044296                         D      1 
99999999999TRLR0000105000088787458                                                                                         